:020000040800F2
:10000000B0180020A1010008D5580008D93F000809
:1000100015510008F91700082563000800000000CA
:100020000000000000000000000000009B5B0008D2
:10003000011B000800000000995B0008C55B000878
:10004000BB010008BB010008BB010008BB010008A0
:10005000BB010008BB010008BB010008BB01000890
:10006000BB010008BB010008BB010008BB01000880
:10007000FD170008BB010008BB010008BB01000818
:1000800009180008BB010008BB010008BB010008FB
:10009000BB010008BB010008BB010008BB01000850
:1000A000BB010008BB010008BB010008BB01000840
:1000B000BB010008BB010008BB010008BB01000830
:1000C000BB010008BB010008BB010008BB01000820
:1000D000BB010008BB010008256200083D62000862
:1000E000BB010008BB010008BB010008BB01000800
:1000F000BB010008BB010008BB010008BB010008F0
:10010000BB010008BB010008BB010008BB010008DF
:10011000BB010008BB010008BB010008BB010008CF
:1001200015180008BB010008BB010008BB0100084E
:10013000BB010008BB010008BB010008BB010008AF
:10014000BB010008BB010008BB010008BB0100089F
:10015000BB010008BB010008BB010008BB0100088F
:10016000BB010008BB010008BB010008BB0100087F
:10017000BB010008BB010008BB0100080000000033
:10018000BB010008BB010008DFF810D000F0EEFE54
:1001900000480047598E0008AFF30080B0180020D7
:1001A0000648804706480047FEE7FEE7FEE7FEE711
:1001B000FEE7FEE7FEE7FEE7FEE7FEE7615C00081C
:1001C000890100082DE9F05F0546002092469B4614
:1001D00088460646814640241BE02846414647465D
:1001E000224600F0B2FD53465A46C01A914110D340
:1001F00011461846224600F099FD2D1A67EB0108BA
:100200004F4622460120002100F090FD17EB000927
:100210004E41201EA4F10104DFDC484631462A4647
:100220004346BDE8F09F2DE9F0410024061B25461A
:1002300071F1000605DA01240027D0EB070067EB17
:100240000101161E73F1000605DA0027D2EB070242
:10025000012567EB0303FFF7B5FF86460E461746F9
:100260009C46AC4204D00025D0EB050E65EB0106A0
:1002700024B10020D2EB000760EB030C704631463E
:100280003A466346BDE8F081A0F14101192900D842
:100290002030704740EA01039B0703D009E008C9FA
:1002A000121F08C0042AFAD203E011F8013B00F83B
:1002B000013B521EF9D27047D2B201E000F8012B87
:1002C000491EFBD270470022F6E710B513460A46D6
:1002D00004461946FFF7F0FF204610BD30B505462D
:1002E0002A460B4612F8010B13F8014B08B1A04245
:1002F000F8D01CB1002802D06D1CF1E7284630BDB3
:10030000CAB2401E10F8011F8A4202D00029F9D15A
:1003100000207047421C10F8011B0029FBD1801AF5
:10032000704710B5002200E0521C835C8C5CA34235
:1003300001D1002BF8D1D8B2E1B2401A10BD30B5CE
:1003400004460020034600E05B1C934203D2E05CBD
:10035000CD5C401BF8D030BD034611F8012B00F8EE
:10036000012B002AF9D11846704700000FB400B5E0
:100370008DB010A909900B9000914FF0FF300A90BA
:1003800000200C9005480690054807906A4609A889
:100390000F9900F011FD0DB05DF814FBD50D0008AC
:1003A000F30D00082DE9FF5F1D464FF0FF3BD5E937
:1003B000014691465F464FF00008A9697F1C0198ED
:1003C0008847296A824688470028F6D1BAF1FF3F5C
:1003D0000CD024F4C064002E19DD600614D5BAF1E7
:1003E0002B0F09D0BAF12D0F0ED103E0584604B0FF
:1003F000BDE8F09F44F48064A9697F1C0198884798
:10040000761E8246002E02DDBAF1300F03D0B9F11C
:10041000000F26D032E0A969761E44F400747F1CD8
:10042000019888478246002E05DDBAF1780F06D084
:10043000BAF1580F03D0B9F1000F10D01EE0B9F196
:10044000000F02D0B9F1100F18D1A969761E24F45B
:1004500000747F1C019888478246102002E0082023
:1004600000E00A20814609E008FB0908A969761E18
:1004700044F400747F1C019888478246002E05DDF5
:100480004946504600F083FC0028EDDAE9690198FE
:100490008847A00502D46FF00100A8E7E00725D146
:1004A000600613D5600502D5C8F1000000E04046A3
:1004B00029680A1D2A600968220501D5087015E01F
:1004C000220701D5088011E008600FE02868011DAF
:1004D00029600068210502D580F8008006E0210728
:1004E00002D5A0F8008001E0C0F8008038467EE721
:1004F0002DE9FF4F087883B09946FF2805D0491CA5
:100500002D2804D00024002008E000200BE0012466
:10051000F9E700EB800003EB4000491C0B78FF2B50
:10052000F7D104B1404200230293147819461D46C6
:100530002D2C01D02B2C04D1521C2D2C13D0002497
:100540000294AA461478FF2C0FD00A25A3FB057845
:1005500001FB05814FF0000C03FB0C11521CE31949
:100560004AEB0101EEE70124EAE7814453EA010086
:1005700002D019F5C87F06DA03980021C0E90011FE
:1005800007B0BDE8F08F0025AE4E2F46DFF8B882E9
:10059000184600F011FBCDE90001B9F1000002DAC4
:1005A000C9F1000400E004460023A74A1AEB030B3C
:1005B00042EB045A12E0E00707D02A463346384699
:1005C000414600F0ECF9074688462A463346104675
:1005D000194600F0E4F905460E466410002CEAD1F5
:1005E000DDE90001B9F1000F5A46534606DA00F082
:1005F00048FA3A46434600F044FA05E000F0CFF9E5
:100600003A46434600F0CBF9029A0AB181F0004124
:10061000039AC2E90001B3E72DE9FF4F1F468DB0F1
:10062000D7E901464FF0FF382E2045464FF000092C
:100630000B90B9696D1C0E988847396A82468847C5
:100640000028F6D1BAF1FF3F0AD024F4D064002E7E
:1006500011DDBAF12B0F08D0BAF12D0F0BD102E04A
:10066000404611B08DE744F48064B9696D1C0E9862
:1006700088478246761E6946600501D52D2000E038
:100680002B208DF8000001F1010B0DF1200809E08D
:10069000B9696D1C0E98884782460F9844F400741F
:1006A000761E0560002E02DDBAF1300FF0D00B99F6
:1006B0008A453ED144F0800406E00F99681CA9F1F8
:1006C000010944F400740860B9696D1C761E0E9827
:1006D000884782463028F0D02BE00B998A4505D117
:1006E000200603D444F08004761E18E0504606F03D
:1006F00013FD08B30DF11301761E44F400748B450D
:1007000008D2AAF130000BF8010B200607D5A9F199
:10071000010003E0200602D409F101008146A00592
:1007200002D50F99681C0860B9696D1C0E9888473E
:100730008246002ED1DC53E0002E51DDBAF1650F68
:1007400002D0BAF1450F4BD1A00549D5B9696D1C4E
:1007500024F44074761E0E9888478246002E0CDDE5
:100760002B2804D0BAF12D0F07D144F48074B96955
:100770006D1C0E9888478246761EE00501D52D2116
:1007800000E02B2108F8011BCDF82C8021E00DF1B1
:100790002901761E44F4007488450CD2AAF1300079
:1007A00010F0FF0088F8000002D10B99884509D9A4
:1007B00008F1010806E0E00501D5244801E042F215
:1007C0000F708146B9696D1C0E98884782460F9854
:1007D0000560002E04DD504606F09EFC0028D6D1B0
:1007E000F9690E988847FF208BF8000088F8000010
:1007F0000020069007904B466A4608A906A8FFF716
:1008000077FEA00502D46FF001002AE714F0240F50
:100810000AD0E00714D1DDE906123868031D3B60F9
:100820000068C0E900120BE0DDE9060100F04CFAB7
:100830000146E00704D13868021D3A600068016093
:1008400028460EE7000014400000F03FF1D8FFFFFB
:100850002DE9FE4F804681EA0300C00F0C46009050
:1008600021F0004123F00045B8EB0200A94105D278
:100870004046214690461C460B46024623F0004067
:10088000104347D0270DC7F30A00C3F30A51029063
:10089000401A019040286BDAC3F3130040F4801B28
:1008A0000098924620B10023D2EB030A63EB0B0BB6
:1008B00001985946C0F14002504600F037FA06460A
:1008C0000D4650465946019A00F04FFA10EB0800C9
:1008D0006141002487EA115284EAE7731A4340D049
:1008E000009A62B3019A012A4FEA075215DC001BF5
:1008F00061EB02014FF0004202EA0752CDE90042EB
:10090000001C41F5801132462B4600F0C9FA03B0B5
:10091000BDE8F08F40462146F9E7001B61EB02017C
:10092000001C41F5801300185B412018A2F5001748
:1009300047EB030140EAD570B6196D4111E06D082F
:100940004FEA360645EAC0754FEA0752001B61EBD5
:100950000201001C41F5801149084FEA30000019DE
:10096000514132462B4603B0BDE8F04F00F089BA42
:100970000098012240000023D0EB020263EBE073F9
:10098000009821464FEAE074B8EB000061EB0401E7
:10099000E9E783F000435BE781F0004158E72DE988
:1009A000FE4F81EA030404F0004421F0004100946A
:1009B0004FF0000B23F0004350EA01045ED052EAEE
:1009C00003045BD0C3F30A54C1F30A552C44A4F2C8
:1009D000F3340194A0FB0254C1F3130141F48011DC
:1009E000C3F3130343F4801301FB024400FB034EE3
:1009F000840A970A44EA815447EA8357A4FB0768AC
:100A000002958D0A05FB07854FEA932C04FB0C54D5
:100A10002705029D4FEA065847EA1637B5EB080549
:100A20006EEB070C870E920E47EA811742EA83129B
:100A3000A7FB0201B6EB0B0164EB00042B0D43EAAC
:100A40000C335E1844EB1C50DA465146E7FB0201BA
:100A5000C5F313044FEA0B3343EA14534FEA04324D
:100A6000019C43EA0603A4F10C040294009CCDE926
:100A700000B400F015FA03B0BDE8F08F0020014685
:100A8000F9E72DE9F04D81EA030404F0004B21F071
:100A9000004514464FF0000A23F0004150EA0502D9
:100AA00020D054EA01021DD0C5F30A570246C5F30F
:100AB0001303C1F31300C1F30A5640F4801543F445
:100AC0008013A7EB0608101BD64608F2FD3873EB1F
:100AD000050002D308F1010801E092185B41B8F16A
:100AE000000F03DA00200146BDE8F08D00204FF42E
:100AF0008011064684460EE0171B73EB050705D3ED
:100B0000121B63EB050306434CEA010C49084FEA4C
:100B1000300092185B4150EA0107EDD152EA030020
:100B200012D082EA040083EA0501084305D0101BB5
:100B3000AB4106D20122002306E000224FF0004321
:100B400002E06FF0010253101AEB06004CEB085163
:100B500010EB0A0041EB0B01BDE8F04D00F091B93C
:100B600030B4044696230800214604D0B62330BC96
:100B7000002200F058B920460021F8E70EB5C10F59
:100B800080EAE0700844CA07002140F233438DE850
:100B90000E000A460B4600F083F903B000BD0EB507
:100BA00040F2334102910021CDE900110A460B4683
:100BB00000F076F903B000BD0EB540F23342029268
:100BC0000022CDE90022134600F06AF903B000BD0F
:100BD00070B5C1F30A5201F000450024C1F31301BE
:100BE00040F2FF3341F480119A4201DA002070BDD7
:100BF00040F233439A42A2F2334203DC524200F005
:100C0000A4F800E090402C43F1D0404270BDC1F305
:100C10000A5210B5C1F3130140F2FF3341F48011C1
:100C20009A4201DA002010BD40F233439A42A2F208
:100C3000334203DC524200F088F810BD904010BDF2
:100C400000F0004230F000400AD0C10D01F56071A3
:100C5000C0F3160042EA0151C20840071143704731
:100C6000002001467047000030B5041E71F10004F9
:100C700004DB4FF00044404264EB0101141E73F1A9
:100C8000000405DB1C464FF00043524263EB0403B3
:100C90008B4208BF824230BD30B5041E71F10004A2
:100CA00004DB4FF00044404264EB0101141E73F179
:100CB000000405DB1C464FF00043524263EB040383
:100CC000994208BF904230BD01F0004330B421F09A
:100CD000004150EA010206D00A0DA2F56072C1F38C
:100CE0001301002A02DC30BC00207047440F44EAA4
:100CF000C104C100E01830BC00EBC25000F08AB85B
:100D000030B50B46014600202022012409E021FADB
:100D100002F59D4205D303FA02F5491B04FA02F5D8
:100D20002844151EA2F10102F1DC30BD202A04DBAB
:100D3000203A00FA02F1002070479140C2F12003EE
:100D400020FA03F3194390407047202A04DB203A2D
:100D500021FA02F00021704721FA02F3D040C2F1DB
:100D600020029140084319467047202A06DBCB1722
:100D7000203A41FA02F043EAE07306E041FA02F356
:100D8000D040C2F1200291400843194670473A28EA
:100D900000D2303820F02002412A01D3A2F13700DE
:100DA000884201D34FF0FF307047000002681144C1
:100DB0001378016018467047D160044951610449B5
:100DC000116200211161114600F0E8B8AD0D000874
:100DD000910F0008426842B1016811F8013B23B14C
:100DE000521EC0E90012184670470121C160881EDA
:100DF000704742685AB1C368016843B983688B423F
:100E000005D0491E521CC0E90012002070474FF067
:100E1000FF3070470029A8BF7047401C490008BF39
:100E200020F00100704710B4B0FA80FC00FA0CF01A
:100E300050EA010404BF10BC704749B1CCF1200452
:100E400021FA04F411FA0CF118BF012121430843DF
:100E5000A3EB0C01CB1D4FEA00614FEA102042BF0B
:100E6000002010BC704700EBC35010440029A4BF01
:100E700010BC7047401C490008BF20F0010010BCA6
:100E8000704710B5141E73F1000408DA401C41F1DC
:100E9000000192185B411A4301D120F0010010BDFE
:100EA0002DE9F04D92469B4611B1B1FA81F202E074
:100EB000B0FA80F220329046FFF738FF04460F4622
:100EC00040EA0A0041EA0B0153465A46084313D050
:100ED000114653EA010019D0C8F140025046FFF70D
:100EE00034FF05460E46504659464246FFF71EFF60
:100EF000084305D0012004E020463946BDE8F08DC6
:100F00000020054346EAE0762C4337430A98630500
:100F1000E40AA0EB08000022FD0A44EA47540A3024
:100F200002D500200146E9E7010510196941DDE914
:100F3000084500196941BDE8F04DA2E7C1F30A5226
:100F4000C1F3130140F2FF3341F480119A4202DAF7
:100F500000200146704740F233439A42A2F23342E6
:100F600002DC5242FFF7F1BEFFF7E0BE064C074D30
:100F700006E0E06840F0010394E807009847103469
:100F8000AC42F6D3FFF704F9E0B3000800B4000860
:100F9000C0B24FF4F05100F0EBB900002DE9F34F6F
:100FA0008BB04FF0000801F10C000C464FF0010B24
:100FB00046460DF1080A01906269012101989047A7
:100FC000051E2DD0252D2CD0216A8847C0B162691D
:100FD000012101989047216A88470028F7D1411ED6
:100FE00062690198904700E0761CA1690B988847D8
:100FF000216A88470028F7D1E1690B988847DBE729
:10100000A1690B9888470746A84201D1761CD3E70F
:10101000E1690B9888477F1C02D1B8F1000F6FD0AF
:1010200047E1002762693D463946019890472A28E2
:1010300004D162690121019890470125DFF8889267
:101040006269012101989047A0F130010A290AD272
:101050004F45E5DC07EB870100EB4107303FDFD46C
:1010600045F01005ECE7E90601D46FF000476C2865
:101070000AD04C2814D0682815D06A280DD07428BE
:101080001CD07A281AD01DE062690121019890478E
:101090006C2802D045F0040514E045F002050DE08F
:1010A00045F020050AE0626901210198904768280F
:1010B00002D045F0080505E045F4006562690121AC
:1010C00001989047C4E9015765283DD019DC58289C
:1010D0007AD00CDC452837D004DC252826D04128DE
:1010E00031D131E046282FD047282CD12CE05B2885
:1010F00077D0612828D063287CD0642823D15AE097
:10110000D1E06F2848D008DC66281DD067281BD0A6
:10111000692821D06E2816D127E0702845D0732881
:1011200068D0752847D078280DD14DE0A1690B987B
:101130008847054625283FF469AFE1690B98884741
:101140006D1C3FF46AAFB4E023466A466FF00100BD
:101150000B99FFF761FA9FE045F040006060A80737
:1011600023464FF0000236D43EE0E8077FF447AF55
:101170002068011D21600068290501D506701BE764
:10118000290701D5068017E7A90703D5F117C0E99C
:10119000006111E706600FE745F040006060A807B6
:1011A00023464FF0080216D41EE040F60E0125EA51
:1011B0000100606016E045F040006060A80723462B
:1011C0004FF00A0207D40FE045F040006060A80726
:1011D00008D5234610226FF001000B99AFF3008071
:1011E0005AE007E0234610226FF001000B99FFF749
:1011F000D9F851E04FF000094F464B46632802D022
:101200005B2807D041E02079C00601D40120A0600E
:1012100001273AE062690121019890475E2805D1D3
:101220004FF001096269494601989047216939B92F
:1012300000210A46534643F82120491C0829FADBBD
:10124000B0B3216969B9C11700EBD16253110AEB40
:10125000830122F01F02821A01200B689040034391
:101260000B6062690121019890475D28E8D1B9F1CE
:10127000000F09D00020514651F82020D24341F8F8
:101280002020401C0828F7DB02AB224600976FF0B5
:1012900001000B99AFF3008000280CDA401C08D144
:1012A000BBF1000F05D04FF0FF300DB0BDE8F08F5F
:1012B000FFE74046F9E7E90701D108F101080644D4
:1012C0004FF0000B78E60000CCCCCC0C2DE9F04DB3
:1012D00000231A461B1A8A4103DB00200146BDE8A1
:1012E000F08DC1F30A52C1F3130141F480154FF0A0
:1012F000000BD10702D100186D41521E0027044691
:1013000040F2FF11384601EB620A3E468046024633
:1013100000204FF48011FFF718FDC2197141BB186E
:1013200046EB0100B4EB030C75EB000C04D3E41A9C
:1013300065EB000517460E46241908F101006D41C2
:1013400080463428E3DDF91946EB0600091BA84165
:1013500003D24FF0FF32134601E0002213461BEB8D
:10136000070046EB0A51BDE8F04DFFF78ABD0000CB
:101370007F2801D9002208E0064A02EB5002C0078C
:10138000127800D1120902F00F02012090400840AB
:101390007047000050B3000810B50146806B026C26
:1013A00012F0500F05D0026CD20626D501F08CF950
:1013B00010BD016C41F40071016401688A6812F08B
:1013C000405F17D1027EAAB9CA6A12F4700F02D028
:1013D0008A6852050ED44A6822F020024A60016CE5
:1013E00021F480710164016CC90403D4016C41F0E3
:1013F0000101016401F066F910BD806BC26CBDE8AB
:1014000010400846104710B5806B40210164416CC4
:1014100041F00401416401F057F910BD10B5806B33
:1014200001F051F910BD0000464910B54A6822F498
:1014300040324A604A6843681A434A6001684A6811
:1014400022F480724A6001684A68036942EA032212
:101450004A6001684A6822F040724A6001684A683E
:1014600083681A434A6001688A6822F400628A60CD
:1014700001688A68C3681A438A60816A6FF0706283
:10148000D14201688A6822F070628A6001688A68C5
:101490000CD0836A1A438A6001688A6822F040523D
:1014A0008A6001688A68C36A1A4301E022F04052E8
:1014B0008A6001688A6822F002028A6001688A688C
:1014C000037E42EA43028A6090F8201000290168F6
:1014D0004A680FD042F400624A6001684A6822F408
:1014E00060424A6001684A68174C436A04EB433320
:1014F0001A4301E022F400624A600168CA6A22F4D9
:101500007002CA620168CA6A838B104C04EB0353F1
:101510001A43CA6201688A6822F400728A6001680C
:101520008A6890F8303042EA43228A6001688A680B
:1015300022F480628A6001688A68406942EA8020F9
:10154000886010BD0023014000E0FFFF0000F0FFB5
:1015500070B5654C65A02DED028B216808F01CFF6D
:1015600094ED000AB8EE400A9FED658A60EE080A25
:10157000DFED648A644D80EEA80A85ED010A06F06D
:10158000CDFA62490860014661A008F005FF64A039
:10159000616808F001FF94ED010AB8EE400A20EE00
:1015A000080AC0EE280A9FED630A20EE800A85ED46
:1015B000010ADFED610A614820EE200A80ED000A91
:1015C00010EE100AFFF73CFB41EC100B5CA053EC53
:1015D000102B08F0E1FE5EA0A16808F0DDFE61A01E
:1015E000E16808F0D9FE94ED030AB8EE400A60EE17
:1015F000080A80EEA80ADFED600A60EE200A80EE9D
:10160000880A85ED010A08F0DDFF5C4880ED000ADC
:1016100010EE100AFFF714FB41EC100B58A053EC2E
:10162000102B08F0B9FE5AA0216908F0B5FE94ED20
:10163000040AB8EE400A60EE080A80EEA80A10EE2E
:10164000100AFFF7FDFA9FED571B53EC112BFFF724
:10165000A6F99FED561B53EC112BFFF7F9F8FFF796
:1016600033FB00EE100A85ED010A04F0AFF9514892
:1016700080ED000A10EE100AFFF7E2FA41EC100BC1
:101680004DA053EC102B08F087FE4EA0616908F0C6
:1016900083FE94ED050AB8EE400A20EE080AC0EE7B
:1016A000280A9FED4D0A20EE800A20EE200A20EE47
:1016B000200A9FED4A1A20EE811A01EE600A9FED82
:1016C000481A00EE810A85ED010A08F071FFBDEEAF
:1016D000C00A444810EE101A016043A0BDEC028B12
:1016E000BDE8704008F058BE10010020CBAEBDFE32
:1016F000B4ABB8D0C6F73A202564202020200000E3
:101700003333534000F07F450000002038000020B4
:10171000736565706167653A2025640D0A000000F5
:10172000B7E7CBD9B4ABB8D0C6F73A2025642020B0
:101730002020200000007A441B2FDD3C40000020C8
:10174000B7E7CBD9D6B53A2025660D0A00000000D0
:101750005858B4ABB8D0C6F73A20256420202020D2
:10176000200D0A00D7C7B6C8B4ABB8D0C6F73A2028
:1017700025642020202020000000C84244000020D2
:10178000D7C7B6C8D6B53A2025660D0A00000000B6
:101790005048B4ABB8D0C6F73A20256420202020AA
:1017A0002000000087A757CA320417C08195438BD9
:1017B0006CA73040480000205048D6B53A20256636
:1017C0000D0A0000544453B4ABB8D0C6F73A2025F4
:1017D0006420202020200000856B854229DCFF4208
:1017E0009A59D6434C000020544453B5C8BCB63A6D
:1017F0002025660D0A000000FEE70000014801F008
:10180000E1B80000D4070020014801F0DBB8000077
:1018100074070020014801F0D5B8000070010020D5
:1018200001681823CAB2103AB2FBF3F2054B6FF30A
:101830000901032A9B5CC36500D9091D816508461F
:1018400070470000F8A5000810B5014600208B691C
:101850008A6A4FF0C07453B1B3F5005F15D072B10E
:10186000012A0CD0022A0AD0032A09D104E01AB1B5
:10187000012A06D0022A03D1C96AC90100D5012074
:1018800010BDC96AA142FAD010BD002AF7D0012AC2
:10189000F2D0022AF3D0032AF3D010BD30B5046889
:1018A000256825F480252560046863608368402BE3
:1018B000036803D099600068C26030BD9A60006818
:1018C000C16030BD70B515480024016821F0C00129
:1018D000016001680160124D04E0641CE4B2012063
:1018E00006F0ACF9D5F80C0210B1C82CF5D30DE018
:1018F000C82C0BD2002404E0641CE4B2012006F0E2
:101900009DF9D5F80C0218B1F02C04D3012070BD5C
:10191000F02CF1D3FAE7002070BD00000010024067
:101920000000424270B500F0ADF800F08BF8FFF710
:10193000C9FFCC2000F0B4F8BE2000F0B1F800F0F0
:1019400071F8044600F06EF8072805D9C043E1435A
:10195000C0B2CCB2002500E0012504EB002000B2AB
:10196000FFF70CF99FED061B53EC112BFFF717F84F
:10197000FFF72EF900B2002D01D1404200B270BD38
:10198000000000000000E43F0D4800B5016887B08A
:1019900041F0100101600068694600F010000590F8
:1019A0000820009001200190029003200390054838
:1019B00001F07CF900F046F8FFF784FF07B000BDA6
:1019C000303802400010024070B5144C206820F0FE
:1019D000C0002060206840F040002060104D0020D2
:1019E000C5F88C02022005F5237506F027F90120C1
:1019F0002860206820F0C0002060206820600C2053
:101A000006F01CF955F8800C08B1012400E0002410
:101A1000322006F013F9204670BD0000001002408D
:101A20000000424270B500255FF00104FFF7CCFFD3
:101A3000C001641C40EA5500E4B2C5B2082CF5D9D7
:101A4000284670BD0D4810B5016821F0C001016045
:101A5000016841F040010160094C0020C4F88C028B
:101A600040F2EE2004F5237406F0E8F8012020602F
:101A7000BDE810400F2006F0E1B800000010024061
:101A80000000424210B5FFF7DDFFFFF71BFFCC203F
:101A900000F006F8BDE81040442000F001B8000056
:101AA0002DE9F04106461448016821F0C0010160AB
:101AB000016841F0400101600125104C0027A84653
:101AC00016F0010F4FEA5606C4F88C7206D00220B9
:101AD00006F0B4F8C4F88C823C2005E03C2006F007
:101AE000ADF8C4F88C82022006F0A8F86D1CEDB2A7
:101AF000082DE5D9BDE8F081001002400000424207
:101B00007047000001A004F00FBC000041542B43BB
:101B100046554E3D312C310D0A0000002DE9F05F95
:101B2000DFF8ECB30025FB4C8BF80050AA46607040
:101B30004FF49676F84F4FF00F084FF00809B6E3D0
:101B4000C0B210287ED2DFE800F008345B84ABD44A
:101B5000FDFCFBFAF9F8F7F6F5F44FF4C871EF481D
:101B6000FEF7B1FBEEA004F0DFFB304606F048F8CC
:101B7000EDA1EA48FEF7B2FB6063ECA008F00CFCB4
:101B8000EFA008F009FCE549F1A008F005FC30469B
:101B900006F036F84FF4FA7001F085F80AF101000A
:101BA0008BF8005000F0FF0A606B00287ED0012007
:101BB00060704FF4C871D948FEF785FBE6A004F0C9
:101BC000B3FB304606F01CF8D7A1D448FEF786FBDD
:101BD0006063E3A008F0E0FB304606F011F8D8A0FF
:101BE00008F0DAFBCD49DAA008F0D6FB4FF4FA7022
:101BF00001F059F83D80606B00287DD002206070B4
:101C00004FF4C871C548FEF75EFBDAA004F08CFB08
:101C1000304605F0F5FFDAA1C048FEF75FFB6063D0
:101C2000D9A008F0B9FB304605F0EAFFC4A008F0DF
:101C3000B3FBBA49C6A008F0AFFB4FF4FA7001F04D
:101C400032F800E030E33D80606B00287BD0032059
:101C500060704FF4C871B148FEF735FBD0A004F0B6
:101C600063FB304605F0CCFFD0A1AC48FEF736FB55
:101C70006063D1A008F090FB304605F0C1FFB0A032
:101C800008F08AFBA549B2A008F086FB4FF4FA7071
:101C900001F009F83D80606B00287DD00420607061
:101CA0004FF4C8719D48FEF70EFB00E0D6E2C8A0D5
:101CB00004F03AFB304605F0A3FFC8A19748FEF7B1
:101CC0000DFB6063C7A008F067FB304605F098FF86
:101CD0009BA008F061FB91499DA008F05DFB4FF4CB
:101CE000FA7000F0E0FF3D80606B00287DD0052099
:101CF00060704FF4C87100E0C5E28848FEF7E3FA6F
:101D0000BEA004F011FB304605F07AFFBEA1834867
:101D1000FEF7E4FA6063BFA008F03EFB304605F032
:101D20006FFF87A008F038FB7C4989A008F034FBDE
:101D30000AE089E260E236E20BE2D7E0ADE083E060
:101D40005BE034E00AE0A0E24FF4FA7000F0ABFF91
:101D50003D80606B00287DD0062060704FF4C87114
:101D60006E48FEF7B0FAB1A004F0DEFA304605F096
:101D700047FFB1A16948FEF7B1FA6063B1A008F06E
:101D80000BFB304605F03CFF6DA008F005FB6349F6
:101D90006FA008F001FB00E07AE24FF4FA7000F067
:101DA00082FF3D80606B00287DD0072060704FF47B
:101DB000C8715A48FEF787FAA8A004F0B5FA304671
:101DC00005F01EFF58A15548FEF788FA6063A6A0EB
:101DD00008F0E2FA304605F013FF59A008F0DCFAEB
:101DE0004E495BA008F0D8FA00E053E24FF4FA70D5
:101DF00000F059FF3D8084F801904FF4C8714748C6
:101E0000FEF761FA9EA004F08FFA304605F0F8FE66
:101E100045A14248FEF762FA60639DA008F0BCFA53
:101E2000304605F0EDFE46A008F0B6FA3B4948A062
:101E300008F0B2FA3D804FF4FA7000F034FF606BA6
:101E4000002864D0092060704FF4C8713348FEF751
:101E50003AFA00E020E295A004F066FA304605F078
:101E6000CFFE31A12D48FEF739FA606393A008F048
:101E700093FA304605F0C4FE31A008F08DFA2749E8
:101E800033A008F089FA4FF4FA7000F00CFF3D809F
:101E9000606B0028D5D00A2060704FF4C8711F48CD
:101EA000FEF711FA00E0F9E18BA004F03DFA3046AC
:101EB00005F0A6FE1CA11948FEF710FA60638AA07F
:101EC00008F06AFA304605F09BFE1DA008F064FA9F
:101ED00012491FA008F060FA3D804FF4FA7000F03C
:101EE000E2FE606B0028ACD00B2060704FF4C8712C
:101EF0000A48FEF7E8F983A004F016FA304605F028
:101F00007FFE09A10548FEF7E9F9606308E19CE15D
:101F10000C00002030000020120000208803002068
:101F20004154490D0A0000004F4B00003E2D2D4545
:101F30004332302D2D3E3E204154490D0A00000011
:101F40003C2D2D454332302D2D3C3C200D0A000008
:101F50002025730D0A000000415445300D0A000091
:101F60003E2D2D454332302D2D3E3E2041544530EF
:101F70000D0A000041542B4350494E3F0D0A00000A
:101F800052454144590000003E2D2D454332302D2D
:101F90002D3E3E2041542B4350494E3F0D0A000038
:101FA00041542B435245473F0D0A00002B435245F5
:101FB000473A20302C3100003E2D2D454332302D44
:101FC0002D3E3E2041542B435245473F0D0A000011
:101FD00041542B4353510D0A000000002B43535131
:101FE0003A0000003E2D2D454332302D2D3E3E203F
:101FF00041542B4353510D0A0000000041542B4320
:10200000475245473F0D0A002B43475245473A2068
:10201000302C31003E2D2D454332302D2D3E3E20BB
:1020200041542B43475245473F0D0A0041542B432F
:10203000474154543F0D0A002B43474154543A2022
:10204000310000003E2D2D454332302D2D3E3E20E7
:1020500041542B43474154543F0D0A0041542B51E6
:102060004750533D310D0A003E2D2D454332302D52
:102070002D3E3E2041542B514750533D310D0A0017
:1020800041542B514D54444953433D300D0A0000F7
:102090003E2D2D454332302D2D3E3E2041542B51B7
:1020A0004D54444953433D300D0A000041542B51D7
:1020B0004944454143543D310D0A00003E2D2D4514
:1020C0004332302D2D3E3E2041542B514944454151
:1020D00043543D310D0A000041542B5149414354B2
:1020E0003D310D0A000000003E2D2D454332302DBC
:1020F0002D3E3E2041542B51494143543D310D0A60
:102100000000000041542B514D544346473D22717D
:102110006D7470696E67222C302C33300D0A00000C
:1021200065A008F039F9304605F06AFDAFF2F0100D
:1021300008F032F96A49AFF2E81008F02DF93D8055
:102140004FF4FA7000F0AFFD606B00287DD00C20DA
:1021500060704FF4C8716248FEF7B5F861A004F0F2
:10216000E3F8304605F04CFDAFF244215C48FEF741
:10217000B5F8606363A008F00FF9304605F040FD44
:10218000AFF2442008F008F95549AFF23C2008F0BE
:1021900003F93D804FF4FA7000F085FD606B002874
:1021A0007ED00D2060704FF4C8714D48FEF78BF85B
:1021B0005FA004F0B9F8304605F022FD65A008F0F4
:1021C000EBF8304605F01CFDAFF28C2008F0E4F887
:1021D0006CA14348FEF782F841496063AFF290205A
:1021E00008F0DAF84FF4FA7000F05DFD3D80606BA6
:1021F000002855D00E2060704FF4C8713848FEF7A3
:1022000062F864A004F090F8304605F0F9FC6BA188
:102210003348FEF763F860636CA008F0BDF8304601
:1022200005F0EEFCAFF2E82008F0B6F82C49AFF26A
:10223000E02008F0B1F83D804FF4FA7000F033FD73
:10224000606B10B184F8018000E029E06CA008F018
:10225000A3F8404684F80180BDE8F09F0320BAFB54
:10226000F0F200FB12A06570012807D16CA008F005
:1022700093F81AA004F058F8FFF744FC40F6B83081
:1022800005F0BEFC13E0012000E00220607057E47E
:102290000320FBE70420F9E70520F7E70620F5E730
:1022A000484684F801904BE464A008F075F8607823
:1022B0000F28ECD1C0B2CFE73E2D2D454332302D53
:1022C0002D3E3E2041542B514D544346473D2771EE
:1022D0006D7470696E67272C302C33300D0A000046
:1022E0008803002041542B514D544346473D2272F0
:1022F0006563762F6D6F6465222C302C302C310D88
:102300000A0000003E2D2D454332302D2D3E3E204B
:1023100041542B514D544346473D22726563762FFD
:102320006D6F6465222C302C302C310D0A000000BA
:1023300041542B514D544F50454E3D302C2231329B
:10234000342E3232302E342E3731222C313838337D
:102350000D0A00003E2D2D454332302D2D3E3E20EE
:1023600041542B514D544F50454E3D302C2231326B
:10237000342E3232302E342E3731222C313838334D
:102380000D0A00002B514D544F50454E3A20302C31
:102390003000000041542B514D54434F4E4E3D30C0
:1023A0002C2273686970222C22726F6F74222C2287
:1023B000313233343536220D0A0000002B514D5492
:1023C000434F4E4E3A20302C302C30003E2D2D45C0
:1023D0004332302D2D3E3E2041542B514D54434F1E
:1023E0004E4E3D302C2273686970222C22726F6F22
:1023F00074222C22313233343536220D0A0000008B
:102400003E2D2D7072696E742D2D3E3E2045433257
:1024100030B3F5CABCBBAFB3C9B9A60D0A00000002
:102420003E2D2D7072696E742D2D3E3E2045433237
:10243000302052455345540D0A0000003E2D2D70AA
:1024400072696E742D2D3E3E2045433230B3F5CA7D
:10245000BCBBAFCAA7B0DC0D0A00000072B6FEE735
:1024600010B54FF4C8711B48FDF72DFF1AA003F0FB
:102470005BFF4FF4967005F0C3FB1DA11548FDF7F7
:102480002DFF1C4C60631CA007F086FF642005F044
:10249000B7FB22A007F080FF0E4924A007F07CFFC5
:1024A000244900200880616B69B1207122A109488C
:1024B000FDF714FF50B10A210648FDF721FF28B1AE
:1024C00003F00AFA02E01EA007F066FF2079401C24
:1024D000207110BD8803002041542B5147505347B1
:1024E0004E4D45413D22524D43220D0A0000000051
:1024F0004F4B0000300000203E2D2D454332302D43
:102500002D3E3E2041542B51475053474E4D45419F
:102510003D22524D43220D0A000000003C2D2D4566
:102520004332302D2D3C3C200D0A00002025730D38
:102530000A00000012000020244750524D430000C2
:102540003E2D2D7072696E7466312D2D3E3E2047F2
:102550005053CAFDBEDDD5FDD4DABCD3D4D82CC7C8
:10256000EBC9D4BAF32E2E2E0D0A000040210148EB
:1025700000F094BC0004024078B50024009490F868
:102580003C20012A19D0012280F83C200A68072348
:102590000568092A13D9EE680A3A02EB4202934011
:1025A0009E43EE600B788A680A3B03EB43039A4034
:1025B0000368DD682A43DA6010E0022078BD2E69E6
:1025C00002EB420293409E432E610B788A6803EB34
:1025D00043039A4003681D692A431A614A681F230E
:1025E000072A13D205686E6B521E02EB82029340DB
:1025F0009E436E630B790A885B1E92B203EB8303E2
:102600009A4003685D6B2A435A6327E005680D2AE8
:1026100012D22E6BD21F02EB820293409E432E6396
:102620000B790A88DB1F92B203EB83039A4003689D
:102630001D6B2A431A6311E0EE6A0D3A02EB820227
:1026400093409E43EE620B790A880D3B92B203EBF6
:1026500083039A400368DD6A2A43DA62164B0568F1
:10266000144A9D4206D10D68122D03D1556845F4D8
:102670008005556005689D4218D10B68102B01D06C
:10268000112B13D1536843F40003536009681029D8
:102690000CD10A490A4A0968B1FBF2F101EB810148
:1026A000490000E0491E00910029FBD180F83C4020
:1026B000002078BD002301400020014028000020B8
:1026C00040420F0070477047704770B504004FF0EC
:1026D000000503D0206C002610B107E0012070BD7A
:1026E000204600F01DF8666484F83C60206CC0064B
:1026F00010D4206C20F4885040F002002064204662
:10270000FEF792FE6664206C20F0020040F00100AB
:10271000206400E0012584F83C60284670BD00007C
:1027200070B586B0064614216846FDF7CCFD1D49FC
:102730003068884234D11C480025016841F480711A
:102740000160006800F48070059017481438016833
:1027500041F0010101600068694600F00100059048
:10276000F32000900320CDE90105104800F09EFA07
:10277000104C0F48C4E900050015A560C4E90350DA
:10278000800060618000A0618011C4E907052046D7
:10279000656200F0E7F908B1FFF760FEB463A66375
:1027A00006B070BD002001404438024000000240E5
:1027B0001064024070010020F8B5044600200E4667
:1027C000009094F83C10012907D0012184F83C10B6
:1027D00021688B68DB0702D011E00220F8BD8B680E
:1027E00043F001038B604049404B0968B1FBF3F1B2
:1027F00001EB410100E0491E00910029FBD1216855
:102800008B68DB0503D58B6823F480738B602168AC
:102810008B68DB075DD0236C40F20165AB4343F46A
:10282000807323644968490505D5216C21F4005162
:1028300041F480512164216CC90404D5616C21F0FC
:102840000601616400E0606484F83C00A16B2948E3
:10285000274DC863A16B28480864A16B2748C8644A
:1028600021686FF0220008602068416841F08061B3
:1028700041602068816841F480718160216813465D
:1028800032464C31A06B00F0D7F968681C49C0068D
:10289000206806D0884224D1816811F0405F13D0AF
:1028A0001FE08842F8D0174A904203D1D1F80423A0
:1028B000D206F1D0144A904213D1D1F8041301F09A
:1028C0001F011029E8D30CE0816841F0804181604C
:1028D00007E0206C40F010002064606C40F00100C4
:1028E00060640020F8BD00002800002040420F0076
:1028F00000230140991300081D1400080714000864
:102900000020014000210140002201402DE9F0415A
:102910000446876D00F0CCFA064694F83500002591
:10292000022806D08020606584F834500120BDE87C
:10293000F0812068016821F016010160206841697A
:1029400021F080014161206C08B9A06C20B12068A1
:10295000016821F0080101602068016821F001018F
:1029600001600CE000F0A4FA801B052807D92020A4
:102970006065032084F8350084F83450D7E7206878
:102980000068C007EED194F85C103F208840B86022
:10299000012084F8350084F834500020C7E790F80F
:1029A0003510022903D0802141650120704705219F
:1029B00080F835100068016821F0010101600020F5
:1029C000704700002DE9F84304464FF00009CDF8A8
:1029D000009063484FF41651A56D0068B0FBF1F705
:1029E0002E6894F85C10082000FA01F131420FD0F3
:1029F00021680A6852070BD50A6822F004020A60AF
:102A000094F85C108840A860606D40F0010060653B
:102A100094F85C104FF0010808FA01F0304208D039
:102A200021684969090604D5A860606D40F002007C
:102A3000606594F85C1004208840304208D021681A
:102A40000968890704D5A860606D40F004006065DE
:102A500094F85C1010208840304218D02168096832
:102A6000090714D5A86020680168490304D50068E7
:102A7000000308D5A16C07E00168C90503D401680B
:102A800021F008010160216C09B12046884794F8C3
:102A90005C1020208840304231D021680968C90686
:102AA0002DD5A86094F8350005282068016806D067
:102AB000490347D5006800031DD4616C1CE021F078
:102AC000160101602068416921F080014161206C9C
:102AD00008B9A06C20B12068016821F008010160EC
:102AE00094F85C103F208840A86084F8358084F812
:102AF0003490216D1FE0E16B09B120468847606D7D
:102B000000282BD0606DC00714D0052084F8350054
:102B10002068016821F0010101600098401C0090CC
:102B2000B84203D820680068C007F6D184F8358021
:102B300084F83490E16C002910D001B02046BDE843
:102B4000F04308470168C905D5D4016821F0100198
:102B5000016084F8358084F83490CCE7BDE8F883D0
:102B6000280000202DE9F041044600F0A1F90646B6
:102B70005CB1022084F83500002584F834502068C8
:102B8000016821F0010101600DE00120BDE8F08144
:102B900000F08EF9801B052805D9202060650320F0
:102BA00084F83500F2E720680068C007F0D1226899
:102BB000116820480140D4E901031843D4E90336E1
:102BC0003343184363691843A3691843E3691843FF
:102BD000236A18430843616A042903D1D4E90B131B
:102BE00019430843106020684069666A20F00701B5
:102BF00030460E43012704280CD1A06A0643E06A40
:102C000040B12046FEF720FE20B14020606584F8E8
:102C10003570BAE7206846612046FEF701FE94F859
:102C20005C203F2191408160656584F8357000200B
:102C3000ACE700003F8010F02DE9F0410446866DBE
:102C400090F83400002501280DD0012084F83400CC
:102C500094F835700020012F07D084F83400022545
:102C60002846BDE8F0810220FBE7022784F8357092
:102C700060652046FEF712FE94F85C103F20884005
:102C8000B0602068016841F016010160206C20B13D
:102C90002068016841F0080101602068016841F086
:102CA00001010160DCE780B204F0AABF2DE9F84F12
:102CB000DFF8BCA10022012503264FF00F090AF11D
:102CC000040BAAF1040E00BF0B6805FA02F42340BE
:102CD000A34270D10F7907F00307012F01D0022F13
:102CE00016D187684FEA420806FA08FC27EA0C0763
:102CF000D1F80CC00CFA08FC4CEA070CC0F808C06C
:102D00004768A7430C79C4F3001494403C434460E3
:102D10000C79E443A4070AD0C4684FEA420C06FACF
:102D20000CF7BC438F6807FA0CF72743C7600C7990
:102D300004F00304022C12D1D40800EB840CDCF85C
:102D400020405707FF0E09FA07F824EA0804D1F8D3
:102D5000108008FA07F848EA0408CCF820800468D4
:102D60004FEA420C06FA0CF7BC430F7907F0030751
:102D700007FA0CF7274307604C6814F4403F70D003
:102D80003C4C276847F480472760246822F00307FB
:102D900004F480440094384C07EB040CDCF8084839
:102DA00097074FEA177809FA08F7BC43334FB84240
:102DB00002D1002724E054E0314FB84201D101276D
:102DC0001EE0304FB84201D1022719E02E4FB84221
:102DD00001D1032714E02D4FB84201D104270FE0A1
:102DE0002B4FB84201D105270AE02A4FB84201D142
:102DF000062705E0284FB84201D1072700E0082741
:102E000007FA08F72743CCF80878DAF80040574665
:102E1000D1F804C09C435FEACC2C00D51C433C6035
:102E2000DBF800405F46D1F804C09C435FEA8C2C7D
:102E300000D51C433C60DEF800407746D1F804C062
:102E40009C435FEA8C3C00D51C433C60084F083F24
:102E50003C68D1F804C09C435FEACC3C00D51C43DD
:102E60003C60521C102AFFF42FAFBDE8F88F000021
:102E7000083C01404438024000300140000002405C
:102E80000004024000080240000C02400010024012
:102E90000014024000180240001C02400069084073
:102EA00000D0012070470AB1816170470904FBE737
:102EB00001488068704700001C00002070B50400C5
:102EC00025D094F83D00002520B984F83C502046D8
:102ED00000F0B8F8242084F83D002068016821F053
:102EE000010101602068016841F40041016020682F
:102EF000016821F40041016000F02CFA4D4A61683C
:102F0000914201D84C4900E04C49884201D201204D
:102F100070BD4B492368B0FBF1F15E6826F03F06B7
:102F20000E435E606368934206D94FF4967359432B
:102F30004FF47A73B1FBF3F12368491C1E6A26F043
:102F40003F06314319626168914210D84900401E22
:102F5000B0FBF1F2521CC2F30B02042A01D204208E
:102F600022E0B0FBF1F0401CC0F30B001CE0A268B3
:102F7000F2B301EBC10303EB0116431EB3FBF6F3FF
:102F80005B1C43F480431B0549D092B301EBC102A3
:102F900002EB0111401EB0FBF1F0401CC0F30B002E
:102FA00040F4804040F400402168CA694CF6FF7349
:102FB0009A431043C861D4E90710014320680268AE
:102FC00022F0C00211430160D4E9030101432068EB
:102FD000826848F2FF339A4311438160D4E90501C6
:102FE00008432168CA6822F0FF021043C86001E06C
:102FF0000EE016E02068016841F0010101602564DF
:10300000202084F83D00256384F83E50002070BDE8
:1030100001EB4106431EB3FBF6F35B1CB3E7012053
:10302000C2E701EB4101401EB0FBF1F0401CC0F3D0
:103030000B00B7E7A086010080841E0000093D0058
:1030400040420F00F0B587B0044614216846FDF7F2
:103050003AF92668204C1F4F00251F4812220321F1
:1030600004231034BE4218D1066846F002060660FA
:10307000006800F002000590CDE9031308028DE816
:10308000250069461548FFF711FE206840F400103E
:103090002060206800F4001019E0114FBE4217D1E3
:1030A000066846F020060660006800F020000590E3
:1030B0008DE82600CDE9031369460A48FFF7F6FDBF
:1030C000206840F480002060206800F480000590B3
:1030D00007B0F0BD00540040303802400004024008
:1030E00000580040001402400248816802781144F0
:1030F000816070471C0000200B4810B5016841F446
:1031000000710160016841F480610160016841F46F
:1031100080710160032000F071F8002000F006F8D3
:1031200000F024F8002010BD003C024070B50D4DA9
:1031300004464FF47A712878B1FBF0F00A49096827
:10314000B1FBF0F000F018FB48B9102C07D20022B8
:103150002146501E00F032F800206C6070BD012046
:1031600070BD00001C000020280000200B4882B029
:10317000016841F480410160006800F480400090E3
:103180000648001F016841F080510160006800F0AE
:1031900080500090052002B000F030B84438024062
:1031A000002809DB00F01F02012191404009800046
:1031B00000F1E020C0F8001170470000F0B40E4BA1
:1031C0001B680C46C3F30223C3F10705042D00D985
:1031D0000425191D072901D2002300E0DB1E01266A
:1031E00006FA05F1491E214099409E40761E164080
:1031F0003143F0BC03F0EEB80CED00E0064900F0FE
:10320000070208684FF6FF03184040EA0220034A0D
:1032100010430860704700000CED00E00000FA0564
:103220002DE9F0470E46050065D0DFF81481D8F887
:103230000000F7B200F00700B04207D288F8007033
:10324000D8F8000000F00700B04254D128683D4C87
:10325000810712D5400703D5206840F4E050206074
:103260002878000703D5206840F46040206020687B
:10327000A96820F0F000084320602878C0072DD00E
:10328000304968680839012812D0022813D0032871
:1032900011D00968890700292DDA216821F003017E
:1032A00001432160FFF704FE814641F2883A0EE0B7
:1032B00009688903EFE709688901ECE7FFF7F8FD82
:1032C000A0EB0901514502D90320BDE8F087206831
:1032D000696800F00C00B0EB810FEFD1D8F8001056
:1032E000404601F00701B14207D90770006800F0BD
:1032F0000700B04201D00120E7E72878400705D554
:103300002068E96820F4E05008432060287800072E
:1033100006D52068296920F4604040EAC100206099
:1033200000F038F82168084AC1F30311515CC84025
:103330000649086006480068FFF7F8FE0020C4E769
:10334000003C02400838024000A600082800002087
:10335000200000200448054900680968044AC1F3B8
:103360008221515CC8407047280000200838024084
:1033700010A600080448054900680968044AC1F31A
:103380004231515CC8407047280000200838024094
:1033900010A60008154810B5006810F00C0214487B
:1033A00013D04110042A0FD0082A0ED10F4C241F2D
:1033B0002268236802F03F025B0207D52068C0F351
:1033C0008810A0FB010106E0084610BD2168C1F38A
:1033D0008811A1FB00010023FCF7F4FE2168C1F372
:1033E0000141491C4900B0FBF1F010BD0838024012
:1033F0000024F4002DE9F84F04006ED02078DFF8A7
:103400004C93C007A9F104054AD009F104000168F2
:10341000C1F38101012908D00068C0F381000228AE
:103420000AD1D9F80000400206D52868800337D5B4
:1034300060680028E1D033E06068B0F5803F10D0CC
:10344000B0F5A02F286810D020F4803028602868BC
:1034500020F4802028606068A8B1FFF729FD0646A7
:103460000DE0286840F48030F4E740F480202860C4
:10347000F7E700BFFFF71CFD801B642873D828689E
:103480008003F7D50CE0FFF713FD064605E000BF0B
:10349000FFF70EFD801B6428F0D828688003F7D45E
:1034A0002078DFF8AC8280074FF0000A3ED5A748AD
:1034B000001D016811F00C0F08D00068C0F38100F6
:1034C00002280BD1D9F80000400207D428688007F1
:1034D00016D5E068012800D112E033E1E068B8B108
:1034E0000120C8F80000FFF7E3FC064605E000BF36
:1034F000FFF7DEFC801B0228C0D828688007F7D5BC
:103500002868216920F0F80040EAC10028600DE039
:10351000C8F800A0FFF7CCFC064604E0FFF7C8FCA3
:10352000801B02281FD828688007F7D4207800075E
:1035300022D5864F87486169703771B101210160DA
:10354000FFF7B6FC064604E0FFF7B2FC801B02283A
:1035500009D838688007F7D50EE0C0F800A0FFF75B
:10356000A7FC064605E082E0FFF7A2FC801B0228CC
:103570007DD838688007F7D42078400768D5DFF811
:10358000CCB100270BF13C0BDBF80000C0000BD4E2
:10359000DBF8001041F08051CBF80010DBF80000A0
:1035A000012700F0805000906B4E3068C00510D4A9
:1035B000306840F480703060FFF77AFC009005E0DE
:1035C000FFF776FC0099401A022850D83068C005F1
:1035D000F6D55E4EA0686C3601280FD005283068FD
:1035E00010D020F001003060306820F0040030601E
:1035F000A068B8B1FFF75CFC00900FE0306840F0C5
:103600000100F4E740F004003060F7E7FFF750FCFA
:103610000099411A41F28830814266D830688007AB
:10362000F4D50EE0FFF744FC009007E0FFF740FC04
:103630000099411A41F28830814256D8306880079B
:10364000F4D42FB1DBF8001021F08051CBF800103A
:10365000A069C8B33D49091D0968C1F38101022968
:103660004AD00228504607D0C8F8600000E03CE08D
:10367000FFF71EFC04463BE04746C8F86000FFF732
:1036800017FC064605E000BFFFF712FC801B02286E
:103690002BD828688001F7D4D4E907010843A16A30
:1036A0002E4A490802EB0141626A41EA821108434D
:1036B00094F82C1040EA0161C9F800100120386626
:1036C000FFF7F6FB044606E03EE000BFFFF7F0FB25
:1036D000001B022809D828688001F7D534E000BF14
:1036E000FFF7E6FB001B022802D90320BDE8F88F94
:1036F00028688001F4D427E00128F7D0D9F8000029
:10370000E26900F4800191421CD1226A00F03F017D
:10371000914217D147F6C071626A0140B1EB821F36
:1037200010D1A26A4FF0FF3300F4403103EB520294
:10373000B1EB024F06D194F82C1000F07060B0EBA2
:10374000016F01D00120D1E70020CFE7043802400B
:1037500000004742800E4742007000400000FFFF1B
:103760004FF0E0210428086903D020F0040008612C
:10377000704740F00400FAE710B5401EB0F1807FBA
:1037800001D3012010BD4FF0E02460610F216017CC
:1037900002F020FE0020A06107202061002010BD63
:1037A00070B590F83C20012A32D0012480F83C40CA
:1037B000022280F83D2003685A689D6822F0700656
:1037C0000A6832435A60134B02689A4214D0B2F12D
:1037D000804F11D0104B9A420ED0104B9A420BD012
:1037E0000F4B9A4208D00F4B9A4205D00E4B9A428B
:1037F00002D00E4B9A4204D1496825F08003194348
:10380000916080F83D40002180F83C10084670BD72
:10381000022070BD0000014000040040000800408C
:10382000000C00400004014000400140001800402E
:1038300010B5040003D094F83D0010B107E001205A
:1038400010BD002084F83C00204600F01FF8022044
:1038500084F83D00211D206802F00AFA012084F856
:10386000460084F83E0084F83F0084F8400084F865
:10387000410084F8420084F8430084F8440084F84E
:10388000450084F83D00002010BD000008B5006828
:103890000649884208D10648016841F010010160DC
:1038A000006800F01000009008BD0000001000400B
:1038B0004038024090F83D10012901D001207047A6
:1038C000022180F83D100168CA6842F00102CA6016
:1038D00000681149884214D0B0F1804F11D00F49CF
:1038E00088420ED00E4988420BD00E49884208D03B
:1038F0000D49884205D00D49884202D00C498842C2
:1039000004D1816801F00701062903D0016841F064
:1039100001010160002070470000014000040040E8
:1039200000080040000C004000040140004001403D
:10393000001800400168CA6822F00102CA600168EC
:103940000A6A41F211131A4207D10A6A9B101A42FD
:1039500003D10A6822F001020A60012180F83D10BB
:1039600000207047704710B504460068406994F81D
:103970003D10C0F3C010212911D180B1206814304E
:1039800050E8001F21F0800140E80012002AF5D124
:10399000606B08B1FEF7BAFF204602F0ABFA206870
:1039A000406994F83E10C0F38010222911D180B1F3
:1039B0002068143050E8001F21F0400140E8001258
:1039C000002AF5D1A06B08B1FEF7A0FF204602F057
:1039D0006AFA002010BD7047F8B50168044608680F
:1039E000CA684B6910F00F0F4FF0000559D003F073
:1039F000010602F49077374365D0C10705D0D105A1
:103A000003D5216C41F001012164410705D5D90797
:103A100003D0216C41F002012164810705D5D9074B
:103A200003D0216C41F004012164010707D502F0A5
:103A30002001314303D0216C41F008012164216C45
:103A400000293AD0800604D5900602D5204602F01F
:103A50005FFA20684069216CC0F38010090700D428
:103A600060B3204602F01FFA20684069400621D565
:103A70002068143050E8001F21F0400140E8001297
:103A8000002AF5D1A06BA8B16C490165A06BFEF7C7
:103A900086FF002811D0A06B016D01B0BDE8F04099
:103AA000084783060FD593060DD52046BDE8F8409C
:103AB00002F02EBA2046FFF78EFFF8BD2046FFF732
:103AC0008AFF2564F8BD266B2023012E79D1C60616
:103AD00077D5D60675D508684868009048694006CD
:103AE00040D5A16B086840680004000CEAD0A28DA4
:103AF0008242E7D9E085C869B0F5807F2DD0206883
:103B00000C3050E8001F21F4807140E80012002AB8
:103B1000F5D12068143050E8001F21F0010140E881
:103B20000012002AF5D12068143050E8001F21F05F
:103B3000400140E80012002AF5D184F83E302563A8
:103B400020680C3050E8001F21F0100140E80012FE
:103B5000002AF5D1A06BFEF7D9FEA08DE18D401AA9
:103B600081B229E0A08DE18D401A81B2E08D00285C
:103B7000A8D00029A6D020680C3050E8002F22F4ED
:103B8000907240E80026002EF5D12068143050E8ED
:103B9000002F22F0010240E80026002EF5D184F823
:103BA0003E30256320680C3050E8002F22F01002D0
:103BB00040E80023002BF5D12046FFF7D3FEF8BDE7
:103BC000FFE705062BD5150629D594F83D002128D9
:103BD000F5D1A068B0F5805F01D12069B0B1206A4D
:103BE000411C2162216800784860E08C401E00047E
:103BF000000CE084E3D12068C16821F08001C1603D
:103C00002068C16841F04001C160D8E7206A00889F
:103C1000C0F308004860206A801C2062E5E7400687
:103C2000CDD55006CBD5CA68204622F04002CA60E6
:103C300084F83D3000F0A1F9C1E70000B15D000853
:103C400070B5040004D094F83D00002510B106E0E2
:103C5000012070BD84F83C50204600F023F8242059
:103C600084F83D002068C16821F40051C1602046FD
:103C700002F0AEF92068016921F4904101612068E9
:103C8000416921F02A0141612068C16841F4005175
:103C9000C1602564202084F83D0084F83E000020A7
:103CA00070BD00002DE9F04F87B00646142168462C
:103CB000FCF709FB5049D6F800C000244F48022504
:103CC000032307274E4A8C451ED14C4914310E68F8
:103CD00046F010060E60096801F0100105910168B8
:103CE00041F0010101600068CDE9024300F00100EC
:103CF00005905802CDE90005694604971046FEF785
:103D0000D5FF07B0BDE8F08F3C49DFF8F8801031EF
:103D10004FF000694FF4806A4FF4807BC44536D180
:103D20000B6843F400330B60096801F4003105911E
:103D3000016841F001010160006802AB00F0010080
:103D400005900420CDE9000583E8B000694690465F
:103D50001046FEF7ABFF0820CDE9000502AB0120BD
:103D600083E8A10069464046FEF7A0FF274D26489C
:103D70002860C5E90194C5E9034A6C61C5E9064BB1
:103D80002C6228466C622FE0B563AE63B9E7204A27
:103D90009445B6D10A6842F480220A60096801F4A9
:103DA00080210591016841F0020101600068CDE9C0
:103DB000024300F0020005904FF44060CDE9000599
:103DC000694604971348FEF771FF104D0E486035A1
:103DD00060382860C5E90194C5E9034A6C61C5E90A
:103DE000064B2C6228466C62FEF7BCFE0028CBD046
:103DF000FEF734FBC8E700000010014030380240F5
:103E00000000024000440040886002407407002027
:103E1000004800400004024090F83E30202B0ED1B4
:103E200059B152B190F83C30012B08D0012380F8F1
:103E30003C300023036302F051B901207047022097
:103E4000704790F83E30202B0ED159B152B190F806
:103E50003C30012B08D0012380F83C300023036361
:103E600002F086B9012070470220704710B5006843
:103E7000104988421CD110481049828883788B549D
:103E8000521C92B28280881810F8011C0A2907D1AE
:103E900010F8020C0D2803D1C8210848FCF713FACA
:103EA00005490122BDE81040891C0548FFF7C9BF3C
:103EB00010BD0000001001400C000020C0020020D6
:103EC000A8060020704700002DE9F843044690F84A
:103ED0003D001F4616460D4620284CD1C5B1BEB147
:103EE00094F83C00012846D0012084F83C004FF0B3
:103EF0000008C4F84080212084F83D00FEF7D8FF78
:103F0000A6848146E684A068B0F5805F03D004E013
:103F10000120BDE8F883206928B12E465FF0000536
:103F200084F83C800EE00026FAE78021204602F06B
:103F30003CF9A0B9AEB116F8010B21684860E08CDD
:103F4000401EE084E08C4B464FF0000200970028B2
:103F5000EBD14FF04001204602F027F930B10320A9
:103F6000D7E735F8020BC0F30800E6E7202084F815
:103F70003D000020CDE70220CBE7704710B500F0F0
:103F800015F8044908600146BDE8104002A006F09B
:103F900003BA00005C00002044697374616E6365BD
:103FA000203D2025646D6D0D0A00000010B501F064
:103FB000F5FD00BFFEF7DAFA0028FBD006F0EEFAB6
:103FC000FEF7D4FA0028FBD104F06CFE014908602A
:103FD00010BD000008000020FEE7000070B50D4C89
:103FE0000025C4F8A0520C48016821F4402101606A
:103FF000016841F480210160C4F8A452022004F554
:10400000287403F01BFE01202060022003F016FE3E
:10401000256070BD00804042000402400E4810B58B
:10402000016886B041F0020101600068012400F0DF
:10403000020005904FF44070CDE900040220CDE964
:10404000024069460548FEF731FE0548C0F8A44223
:10405000C0F8A04206B010BD303802400004024053
:104060000080404270B50D4C0025C4F8A0520C48A9
:10407000016821F440210160016841F48021016060
:104080000126C4F8A462022004F5287403F0D6FDCA
:104090002660022003F0D2FD256070BD0080404202
:1040A000000402402DE9F0478146164800240168CB
:1040B00021F44021016001680160134E2546274626
:1040C0004FF00108C6F8A072022003F0B7FDC6F851
:1040D000A0826006040ED6F8240208B1641CE4B283
:1040E000012003F0ABFD6D1CEDB2082DEAD3B9F150
:1040F000000F04D0FFF772FF2046BDE8F087FFF7FE
:10410000B1FFF9E700040240008040422DE9F04190
:1041100006461448016821F440210160016841F419
:1041200080210160104C0027C4F8A0723D464FF07A
:104130000108F009C4F8A4027006060E022003F07C
:104140007DFDC4F8A082022003F078FDC4F8A072BF
:10415000022003F073FD6D1CEDB2082DE9D3BDE81C
:10416000F0810000000402400080404270B50D481C
:10417000016821F440210160016841F4802101605F
:10418000094C0120C4F8A402C4F8A002042004F5DC
:10419000287403F053FD00256560042003F04EFDF4
:1041A000256070BD00040240008040420E4810B5FA
:1041B000016821F440210160016841F4802101601F
:1041C0000A4C0020C4F8A002C4F8A402042004F59C
:1041D000287403F033FD012020606060BDE81040CA
:1041E000042003F02BBD0000000402400080404288
:1041F00070B512480024016821F440210160016873
:1042000001600F4D0126C5F8A462304603F016FD8B
:10421000C5F8A062012003F011FD07E0641CE4B2C0
:10422000FA2C03D9FFF7C2FF012070BDD5F8240294
:104230000028F3D1C5F8A00270BD000000040240C0
:104240000080404230B52DED028B87B0474A484987
:10425000484804F0E7FE0028F8D100F007F90546C9
:1042600002AA01A9684600F0CFF805AA04A903A88C
:1042700000F0E3F864210A24002D0ADA684200B253
:10428000404290FBF4F290FBF1F104FB12023AA0E1
:1042900006E095FBF4F095FBF1F104FB10523BA016
:1042A00006F07AF83348B2EE048A90ED000A20EE68
:1042B000080ABDEEC00A10EE100A00B2002809DAA2
:1042C000404200B290FBF4F104FB110290FBF4F1C8
:1042D00032A006E090FBF4F104FB110290FBF4F134
:1042E00033A006F059F8224890ED000A20EE080AA3
:1042F000BDEEC00A10EE100A00B2002809DA4042F2
:1043000000B290FBF4F104FB110290FBF4F12DA03C
:1043100006E090FBF4F104FB110290FBF4F12EA0F7
:1043200006F03AF8114890ED000A20EE080ABDEEBA
:10433000C00A10EE100A00B2002809DA404200B2AA
:1043400090FBF4F104FB110290FBF4F126A006E0CF
:1043500090FBF4F104FB110290FBF4F126A006F0AF
:104360001BF807B0BDEC028B30BD000058000020E8
:10437000540000205000002074656D703A202D25F7
:10438000642E256420430D0A0000000074656D70E2
:104390003A2025642E256420430D0A007069746359
:1043A000683A202D25642E2564A1E30D0A00000043
:1043B00070697463683A2025642E2564A1E30D0AB0
:1043C00000000000726F6C6C3A202D25642E25646D
:1043D000A1E30D0A00000000726F6C6C3A202564A6
:1043E0002E2564A1E30D0A007961773A202D25641A
:1043F0002E2564A1E30D0A007961773A2025642E09
:104400002564A1E30D0A00007CB514460D4606465E
:104410006B4606223B21682000F0B2F800280BD141
:10442000BDF8001049BA3180BDF8021049BA2980A0
:10443000BDF8041049BA21807CBD7CB514460D46F8
:1044400006466B4606224321682000F099F80028B2
:104450000BD1BDF8001049BA3180BDF8021049BA3D
:104460002980BDF8041049BA21807CBD08B56B468F
:1044700002224121682000F083F8BDF8000040BA14
:1044800000B2FCF77BFB9FED0D1B53EC112BFCF7EF
:10449000F8FA9FED0C1B53EC112BFCF7D9F9FCF744
:1044A00013FC00EE100ADFED090A20EE200ABDEE33
:1044B000C00A10EE100A00B208BD000000000000A3
:1044C00000407540A4703D0AD74342400000C842F6
:1044D00010B5FFF7A3FD80216B2000F0C0F8642029
:1044E00003F08EFB00216B2000F0B9F8032000F0F0
:1044F00082F8002000F07AF8322000F099F80021CC
:10450000382000F0ACF800216A2000F0A8F8002163
:10451000232000F0A4F88021372000F0A0F87520B7
:1045200000F011F8682801D0012010BD01216B2096
:1045300000F095F800216C2000F091F8322000F096
:1045400077F8002010BD10B50446FFF70FFED0200D
:10455000FFF7DCFDFFF74CFE2046FFF7D7FDFFF726
:1045600047FEFFF703FED120FFF7D0FDFFF740FE27
:104570000020FFF797FD0446FFF718FE204610BD08
:104580002DE9F0411D4614460F460646FFF7EEFDA5
:104590007006000EFFF7BAFDFFF72AFE20B1FFF705
:1045A00005FE0120BDE8F0813846FFF7AFFDFFF7BB
:1045B0001FFEFFF7DBFD012000EB4600C0B2FFF756
:1045C000A5FDFFF715FE09E0012C0DD05FF00100FD
:1045D000FFF768FD641E05F8010BE4B2002CF3D16F
:1045E000FFF7E4FD0020DDE70020F1E7C006010E43
:1045F0001C2000F034B8C006010E1B2000F02FB8BC
:10460000BC2801D3012110E0622801D302210CE073
:104610002A2801D3032108E0142801D3042104E04F
:104620000A2801D3052100E006211A2000F017B85E
:1046300010B504464FF47A70844201D9044602E072
:10464000042C00D20424B0FBF4F0401EC1B21920A7
:1046500000F005F86008BDE81040FFF7D1BF70B565
:104660000C460546FFF782FDD020FFF74FFDFFF710
:10467000BFFD50B92846FFF749FDFFF7B9FD2046B9
:10468000FFF744FDFFF7B4FD18B1FFF78FFD0120E0
:1046900070BDFFF78BFD002070BD2DE9F0411E4677
:1046A00015460F460446FFF761FD6006000EFFF752
:1046B0002DFDFFF79DFD60B93846FFF727FDFFF799
:1046C00097FD00240CE0305DFFF720FDFFF790FD23
:1046D00020B1FFF76BFD0120BDE8F081641CE4B25E
:1046E000AC42F0D3FFF762FD0020F5E710B500F013
:1046F00083FAEC2000F050FA00F0C0FA1E2000F01F
:104700004BFA00F0BBFABDE8104000F095BA70B566
:10471000044600F071FAEC2000F03EFA00F0AEFA28
:10472000204600F039FA00F0A9FA00F085FA0A20D4
:1047300003F066FA00F060FAEC2000F02DFA00F0C9
:104740009DFA002000F028FA00F098FA00F074FAC0
:1047500000F052FAED2000F01FFA00F08FFA01206D
:1047600000F0E6F90446012000F0E2F905460020D9
:1047700000F0DEF9064600F05FFA200400EB0520A9
:10478000304470BD2DE9F04748202DED028BFFF736
:10479000BEFFA24F78605820FFF7B9FFA04EB86067
:1047A0004FF000087169B0EB012F3AD9494200EB94
:1047B0000125C7E90A58B0694446A0FB051208FB69
:1047C000052200FB0422C80D40EA4220D10D4FF41F
:1047D000FA62801841F10001C7E90C013089020436
:1047E0003069A0FB053C04FB05CC00FB04C1D809E3
:1047F00040EA4160101844EBD111FCF7DDF9C7E93C
:104800000801F1687068A1FB052304FB053301FB77
:104810000433110AC00341EA0361401844EB132436
:104820003AE0C0EB0125C7E90A58B0694446A0FB4D
:10483000051208FB052200FB0420C90D41EA4021B6
:10484000C20D4FF4FA630020D1EB030160EB0200CC
:10485000C7E90C10308902043069A0FB053C04FB59
:1048600005CC00FB04C1D80940EA4160101A64EB92
:10487000D111FCF7A1F9C7E90801F1687068A1FB43
:10488000052304FB053301FB0433110AC00341EA8D
:104890000361401A64EB1324C7E90E04D7E90C54F2
:1048A0004FF4FA60281A74F100003DD24FF4FA6018
:1048B000D5EB0002A2FB0203002161EB040101FB26
:1048C000023302FB0131FCF74BF900EE100AF0EE67
:1048D000080A87ED000AD7E90A01A0FB002301FBC3
:1048E000003300FB01330320A2FB00C660EE200A68
:1048F000B6EE001A03FB006060EE810A002102FBA5
:104900000100FCEEE00A4008F860C7ED040AF1EE91
:10491000040A20EE200AF4EE000A20EE200ABCEE83
:10492000C00A87ED050A25E03E482A18A2FB0203CB
:1049300044F1FF3101FB023302FB0131FCF710F9B6
:1049400000EE100ADFED380A87ED000AD7E90A0108
:10495000A0FB002301FB003320EE200A00FB013006
:1049600091184041BCEEC00A4009F86087ED040A86
:10497000C7F814803869FCF712F997ED081B53EC5F
:10498000112BFCF709F841EC180B464687ED088B14
:10499000D7E90E2079690023511A60EB0600C7E9B8
:1049A0000E108046F8688946281A64EB06016422D6
:1049B000FBF708FCC7E90C017A680D46A2FB093C2D
:1049C00006FB09C1044602FB0811580D40EAC1204C
:1049D000490DFCF7F1F853EC182BFBF7DAFF9FEDCC
:1049E000131B53EC112BFBF7DAFF9FED121B53EC5B
:1049F000112BFCF746F8FCF70AF9B86122462B4662
:104A00000EA005F0C9FC11A0B96905F0C5FC144958
:104A1000B8690860BDEC028BBDE8F087B0000020EB
:104A20009008002030F8FFFF0000803D00000000EB
:104A30000000203F00000000000024400954656D84
:104A400070203A20256C6C750D0A000009507265C3
:104A50007373757265203A2025750D0A00000000F9
:104A60003C00002070B50D4C0025C4F884520C4861
:104A7000016821F003010160016841F0010101605A
:104A8000C4F88052022004F5207403F0D7F8012006
:104A90006060022003F0D2F8656070BD0080424281
:104AA000001402400F4810B5016886B041F02001A3
:104AB00001600068012400F0200005900320CDE98A
:104AC00000040220CDE9024069460748FEF7EEF8EF
:104AD0000648C0F88442C0F88042012003F090F8F4
:104AE00006B010BD3038024000140240008042423F
:104AF00070B50D4C0025C4F884520C48016821F0B3
:104B000003010160016841F0010101600126C4F860
:104B10008062022004F5207403F090F866600220A1
:104B200003F08CF8656070BD0080424200140240C2
:104B30002DE9F047814616480024016821F0030161
:104B4000016001680160134E254627464FF00108B9
:104B5000C6F88472022003F071F8C6F884826006F9
:104B6000040ED6F8000208B1641CE4B2012003F080
:104B700065F86D1CEDB2082DEAD3B9F1000F04D031
:104B8000FFF770FF2046BDE8F087FFF7B1FFF9E7B8
:104B900000140240008042422DE9F04106461448CC
:104BA000016821F003010160016841F00101016029
:104BB000104C0027C4F884723D464FF00108F009FC
:104BC000C4F880027006060E022003F037F8C4F81D
:104BD0008482022003F032F8C4F88472022003F0C9
:104BE0002DF86D1CEDB2082DE9D3BDE8F081000071
:104BF000001402400080424270B50D48016821F067
:104C000003010160016841F001010160094C0120CC
:104C1000C4F88002C4F88402042004F5207403F070
:104C20000DF800252560042003F008F8656070BDCC
:104C300000140240008042420E4810B5016821F085
:104C400003010160016841F0010101600A4C00208C
:104C5000C4F88402C4F88002042004F5207402F031
:104C6000EDFF012060602060BDE81040042002F0EC
:104C7000E5BF0000001402400080424270B51248B7
:104C80000024016821F003010160016801600F4DFB
:104C90000126C5F88062304602F0D0FFC5F8846274
:104CA000012002F0CBFF07E0641CE4B2FA2C03D928
:104CB000FFF7C2FF012070BDD5F800020028F3D134
:104CC000C5F8840270BD000000140240008042421A
:104CD0002DE9F041FFF7E6FEFFF708FD142002F092
:104CE0008FFF0124DFF89480A02600BFFFF784FF28
:104CF000EC20FFF751FFFFF7C1FF06EB4400C0B205
:104D0000FFF74AFFFFF7BAFFFFF796FF052002F013
:104D100095FFFFF771FFED20FFF73EFF012002F046
:104D20008DFFFFF7ABFF0120FFF702FF05460120D3
:104D300002F084FF0020FFF7FBFE0746FFF77CFF31
:104D400047EA052148F82410641CE4B2062CCDD9AA
:104D50000B4C0025012002F053FFFFF713FDD4E9AF
:104D600006106D1C0844EDB2E061052DF2D305215B
:104D7000B0FBF1F0E061BDE8F08100009008002098
:104D8000B00000207FB500252E48009501950295C2
:104D90002B490395016001244FF480310461C0E97F
:104DA0000115047680F820502749C0E90A15062627
:104DB000C661C56080F830404461FDF786FC08B1EB
:104DC000FDF74CFBCDE9005469461E480295FDF7FE
:104DD000D3FB08B1FDF742FB0220CDE90040694654
:104DE0001848FDF7C9FB08B1FDF738FB042503207F
:104DF000CDE9005069461348FDF7BEFB08B1FDF749
:104E00002DFB052469460F48CDE90045FDF7B4FBAD
:104E100008B1FDF723FBCDE9006469460948FDF7B9
:104E2000ABFB08B1FDF71AFB0720CDE90006694688
:104E30000448FDF7A1FB002801D0FDF70FFB7FBD63
:104E400000200140280100200100000F154808B58E
:104E5000016841F480010160016801F48001009162
:104E6000016841F4001101600068002200F40010A4
:104E7000009011460C20FEF7A1F90C20FEF790F9E6
:104E8000002211461020FEF799F91020FEF788F94C
:104E9000002203213820FEF791F9BDE808403820B0
:104EA000FEF77EB9303802402DE9F04387B0142177
:104EB0006846FBF708FA37480024016841F0100102
:104EC0000160016801F010010591016841F02001C5
:104ED0000160016801F020010591016841F0800145
:104EE0000160016801F080010591016841F0010154
:104EF0000160016801F001010591016841F00201C2
:104F00000160016801F002010591016841F0400172
:104F100001600068204F00F0400005900022082149
:104F20003846FDF7C0FFDFF874807E150022314659
:104F30004046FDF7B8FFDFF8689000228021484620
:104F4000FDF7B1FF082000900125CDE90154694625
:104F500038460394FDF7AAFE0096CDE90154694650
:104F600040460394FDF7A2FE4020CDE900046946C7
:104F700048460294FDF79AFE8020CDE90005022004
:104F80000290039069464846FDF790FE07B0BDE8E1
:104F9000F083000030380240001002400018024048
:104FA000000402400D4810B50B4901600C494160F6
:104FB00000214FF480428160C0E9031241618161A8
:104FC000C1610162FDF77AFF002803D0BDE81040FF
:104FD000FDF744BA10BD000000540040D00100208D
:104FE000801A06000D4810B50B4901600C4941605C
:104FF00000214FF480428160C0E903124161816168
:10500000C1610162FDF75AFF002803D0BDE81040DE
:10501000FDF724BA10BD0000005800402402002013
:10502000801A06001CB500240F4800940D49019415
:1050300001605321C0E901144FF6FF71C160802166
:105040008161FEF7F5FB08B1FDF708FA00946946A7
:1050500005480194FEF7A4FB002801D0FDF7FEF9F6
:105060001CBD000000100040780200200C4810B564
:105070000A4901604FF4E1314160002181600C2256
:10508000C160C0E904128161C161FEF7D9FD002849
:1050900003D0BDE81040FDF7E1B910BD001001409C
:1050A000A80600200C4810B50A4901604FF4E13110
:1050B0004160002181600C22C160C0E9041281615D
:1050C000C161FEF7BDFD002803D0BDE81040FDF72B
:1050D000C5B910BD00440040EC0600200C4810B5D6
:1050E0000A4901604FF4E1314160002181600C22E6
:1050F000C160C0E904128161C161FEF7A1FD002811
:1051000003D0BDE81040FDF7A9B910BD004800402C
:1051100030070020FEE700002DE9F041FF4C0120A0
:105120002DED048B6070E078401CC0B2E070642804
:1051300002D9206B401C2063206AFBF781FD9FEDA4
:10514000F88B53EC182BFBF72AFC9FEDF79B53ECE5
:10515000192BFBF77DFB41EC100B01F0A1FD53EC8B
:10516000182B51EC100BFBF78CFCFBF7ADFD20620C
:10517000606AFBF765FD53EC182BFBF710FC53EC52
:10518000192BFBF765FB41EC100B01F089FD53EC8B
:10519000182B51EC100BFBF774FCFBF795FD6062CC
:1051A000A06AFBF74DFD53EC182BFBF7F8FB53EC13
:1051B000192BFBF74DFB41EC100B01F071FD53EC8B
:1051C000182B51EC100BFBF75CFCFBF77DFDA0628C
:1051D000A069FBF735FD9FEDD68B53EC182BFBF741
:1051E000DEFB53EC192BFBF733FB41EC100B01F00A
:1051F00057FD53EC182B51EC100BFBF742FCFBF75F
:1052000063FDA0616069FBF71BFD53EC182BFBF7F6
:10521000C6FB53EC192BFBF71BFB41EC100B01F009
:105220003FFD53EC182B51EC100BFBF72AFCFBF75E
:105230004BFDC14D60612878FBF7B1FC53EC182B96
:10524000FBF7ADFB53EC192BFBF702FB41EC100B0A
:1052500001F026FD53EC182B51EC100BFBF711FC61
:10526000FBF7D5FC28702069FBF7EAFC53EC182B00
:10527000FBF795FB53EC192BFBF7EAFA41EC100B0B
:1052800001F00EFD53EC182B51EC100BFBF7F9FB62
:10529000FBF71AFD20612078FBF781FC53EC182BFB
:1052A000FBF77DFB53EC192BFBF7D2FA41EC100B0B
:1052B00001F0F6FC53EC182B51EC100BFBF7E1FB63
:1052C000FBF7A5FC207002F09BFB8046206BFBF7F0
:1052D00055FC41EC100B02F057FB024697A14046EB
:1052E00002F048FBA07800287ED094ED100B02F06D
:1052F0004BFB024694A1404602F03CFB94ED0E0BA2
:1053000002F042FB024691A1404602F033FB206AC4
:10531000FBF796FC41EC100B02F036FB02468CA129
:10532000404602F027FB606AFBF78AFC41EC100B59
:1053300002F02AFB024688A1404602F01BFBA06A4D
:10534000FBF77EFC41EC100B02F01EFB024684A131
:10535000404602F00FFBE06AFBF710FC41EC100B3B
:1053600002F012FB02467FA1404602F003FBA06858
:10537000FBF704FC41EC100B02F006FB02467CA19B
:10538000404602F0F7FA70A1404602F069FB18B1FE
:1053900094ED100B02F078FB6CA1404602F060FB2C
:1053A00018B194ED0E0B02F06FFB69A1404602F0BC
:1053B00057FB050007D0206AFBF742FC41EC100BBD
:1053C000284602F061FB64A1404602F049FB05005B
:1053D00007D0606AFBF734FC41EC100B284602F062
:1053E00053FB5FA1404600E02FE002F039FB0500CF
:1053F00007D0A06AFBF724FC41EC100B284602F012
:1054000043FB58A1404602F02BFB050007D0E06AA1
:10541000FBF7B4FB41EC100B284602F035FB54A11E
:10542000404602F01DFB050076D0A068FBF7A6FB06
:105430003DE1012000E00020A070404602F01EFB8C
:1054400007464FF496750026A3E12069FBF7F8FBA9
:1054500041EC100B02F098FA024647A1404602F0D8
:1054600089FA2878FBF79BFB41EC100B02F08CFAD1
:10547000024644A1404602F07DFA454F3878FBF7DA
:105480008EFB41EC100B02F07FFA024641A1404630
:1054900002F070FAE069FBF771FB41EC100B02F0CF
:1054A00073FA02463EA1404602F064FA6069FBF7D7
:1054B000C7FB41EC100B02F067FA024639A14046E7
:1054C00002F058FAA069FBF7BBFB41EC100B02F0AD
:1054D0005BFA024636A1404602F04CFAE068FBF760
:1054E0004DFB41EC100B02F04FFA024631A1404651
:1054F00002F040FA2078FBF752FB41EC100B02F06F
:1055000043FA02462EA1404602F034FA1DA140465D
:1055100002F0A6FA06005DE0CEE0000030000020B8
:105520000000000000005940000000000000E03FC3
:10553000000000000000244000000020446576695F
:1055400063654944000000006C6F6E006C6174007C
:105550007069746368000000726F6C6C000000007A
:105560007961770064697374616E6365000000009F
:10557000536565706167650057696E645370656552
:105580006400000054656D70657261747572650029
:105590000100002048756D6964697479000000009D
:1055A0005444530074757262696469747900000030
:1055B00050480000507265737375726500000000FA
:1055C000576174657254656D70657261747572654A
:1055D0000000000007D02878FBF7E1FA41EC100B3F
:1055E000304602F051FAAFF27001404602F038FA4C
:1055F000050007D02069FBF723FB41EC100B284680
:1056000002F042FAAFF27401404602F029FA0500B6
:1056100007D03878FBF7C3FA41EC100B284602F0AC
:1056200033FAAFF28401404602F01AFA050007D0BF
:10563000E069FBF7A3FA41EC100B284602F024FACC
:10564000AFF29401404602F00BFA050007D0A069C2
:10565000FBF7F6FA41EC100B284602F015FAAFF210
:10566000BC01404602F0FCF9050007D06069FBF779
:10567000E7FA41EC100B284602F006FAAFF2CC0133
:10568000404602F0EDF9050007D0E068FBF776FA36
:1056900041EC100B284602F0F7F9AFF2DC0140466E
:1056A00002F0DEF9050007D02078FBF778FA41EC2C
:1056B000100B284602F0E8F9A07800287FF4BBAE72
:1056C000B7E6607818B1012803D002285ED035A073
:1056D0005DE04FF4C8713948FAF7F5FDA07800286D
:1056E00038461AD0FAF716FE014635A000F01CFE27
:1056F000284602F085FA39463BA000F015FE284600
:1057000002F07EFA3AA12D48FAF7E8FD60633846C8
:10571000FAF700FE01463BA019E0FAF7FBFD01464F
:1057200044A000F001FE284602F06AFA39462EA095
:1057300000F0FAFD284602F063FA2DA11F48FAF79F
:10574000CDFD60633846FAF7E5FD014643A004F05D
:1057500023FE642002F054FA39464CA004F01CFEEB
:10576000284602F04DFA404602F056F9384600F05D
:1057700041FE4BA004F010FE10494DA004F00CFEB9
:105780004D480680606B58B1022060704BA004F059
:1057900003FE6078022894D1BDEC048BBDE8F08153
:1057A00066708EE73E2D2D7072696E742D2D3E3E13
:1057B00020B7A2B2BCCAA7B0DC0D0A008803002043
:1057C00041542B514D5450554245583D302C302CAE
:1057D000302C302C22736869705F76616C7565229D
:1057E0002C25640D0A00000025730D0A000000003E
:1057F0002B514D5450554245583A20302C302C30C6
:10580000000000003E2D2D454332302D2D3E3E2020
:1058100041542B514D545055423D302C302C302C9E
:10582000302C22736869705F76616C7565222C2557
:10583000640D0A0041542B514D5450554245583D7A
:10584000302C302C302C302C22736869705F7374CC
:10585000617465222C25640D0A0000003E2D2D4543
:105860004332302D2D3E3E2041542B514D54505546
:10587000423D302C302C302C302C22736869705F04
:105880007374617465222C25640D0A003E2D2D4A27
:10589000534F4E2D2D3E3E2025730D0A0000000073
:1058A0003C2D2D454332302D2D3C3C200D0A00006F
:1058B0002025730D0A000000120000203E2D2D70DF
:1058C00072696E742D2D3E3E20B7A2B2BCB3C9B929
:1058D000A60D0A00FEE700002DE9F04100262E4F3C
:1058E0000FE076B1641C2DA12046FAF7F7FC050005
:1058F00017D0072E14D2DFE806F0130A0E3A3F4401
:10590000490026A12648FAF7E9FC044609E02A1BCB
:105910002146B81C02E02A1B21461F48FAF7BAFCB0
:105920002C46761CF6B2062EDBD900F063F800F0A8
:105930008FF819491BA0383104F02EFD97ED0A0BA2
:105940001BA053EC102B04F027FD97ED0C0B1BA0B4
:1059500053EC102B04F020FD1B4897ED0A0B80ED53
:105960000E0B97ED0C0B80ED100BBDE8F0810A4893
:105970002A1B21460D30D1E707482A1B2146183043
:10598000CCE705482A1B21461A30C7E702482A1BE4
:1059900021462630C2E70000380800202C00000015
:1059A0008803002054696D653A25730D0A000000D4
:1059B0006C61743A25660D0A000000006C6F6E3A47
:1059C00025660D0A000000003000002010EE100ACD
:1059D0000649884202DDB2EE0C0A7047B5EEC00AF5
:1059E000F1EE10FAF9D29FED020A70470000604113
:1059F0000000000000B587B005A904A8CDE90001AA
:105A000003AB02AA09A10D48FAF7B0FCDDE90401D5
:105A1000029ACDE9000109480832029208A1363005
:105A2000039B00F091FC07B000BD00002532642507
:105A300032642532642E2532640000003A080020CA
:105A40002532643A2532643A2532642E25326400C8
:105A500010B52DED0A8B8AB008A806AB01AA3FA1AC
:105A600000904148FAF782FC07A800903E4803AB3B
:105A700002AA3EA10D30FAF779FC0898FBF77EF8F0
:105A80009FED3DAB53EC1A2BFAF7FBFF41EC180BE3
:105A90000698FBF773F89FED3ABB53EC1B2BFAF714
:105AA000F0FF41EC190B0198FBF768F853EC192B48
:105AB000FAF7CEFE53EC182BFAF7CAFE2A4C9FEDEC
:105AC000328B0D3C53EC182BFAF769FF9FED30CB6E
:105AD00053EC1C2BFAF7BCFE41EC100B01F0E0F884
